{
  "contractName": "TokenSale",
  "abi": [
    {
      "inputs": [
        {
          "internalType": "address",
          "name": "_token",
          "type": "address"
        }
      ],
      "stateMutability": "nonpayable",
      "type": "constructor"
    },
    {
      "inputs": [],
      "name": "tokenOwner",
      "outputs": [
        {
          "internalType": "address",
          "name": "",
          "type": "address"
        }
      ],
      "stateMutability": "view",
      "type": "function"
    },
    {
      "inputs": [],
      "name": "purchase",
      "outputs": [],
      "stateMutability": "payable",
      "type": "function"
    }
  ],
  "bytecode": "0x6080604052670de0b6b3a76400005f5534801561001a575f80fd5b50604051610847380380610847833981810160405281019061003c91906100e0565b8060025f6101000a81548173ffffffffffffffffffffffffffffffffffffffff021916908373ffffffffffffffffffffffffffffffffffffffff1602179055505061010b565b5f80fd5b5f73ffffffffffffffffffffffffffffffffffffffff82169050919050565b5f6100af82610086565b9050919050565b6100bf816100a5565b81146100c9575f80fd5b50565b5f815190506100da816100b6565b92915050565b5f602082840312156100f5576100f4610082565b5b5f610102848285016100cc565b91505092915050565b61072f806101185f395ff3fe608060405260043610610028575f3560e01c806364edfbf01461002c578063a3e6761014610036575b5f80fd5b610034610060565b005b348015610041575f80fd5b5061004a61027b565b60405161005791906102df565b60405180910390f35b5f543410156100a4576040517f08c379a000000000000000000000000000000000000000000000000000000000815260040161009b90610352565b60405180910390fd5b5f8054346100b291906103d3565b90505f8054826100c29190610403565b346100cd9190610444565b905060025f9054906101000a900473ffffffffffffffffffffffffffffffffffffffff1673ffffffffffffffffffffffffffffffffffffffff1663beabacc860015f9054906101000a900473ffffffffffffffffffffffffffffffffffffffff163360025f9054906101000a900473ffffffffffffffffffffffffffffffffffffffff1673ffffffffffffffffffffffffffffffffffffffff1663313ce5676040518163ffffffff1660e01b8152600401602060405180830381865afa158015610199573d5f803e3d5ffd5b505050506040513d601f19601f820116820180604052508101906101bd91906104b1565b600a6101c9919061060b565b866101d49190610403565b6040518463ffffffff1660e01b81526004016101f293929190610664565b6020604051808303815f875af115801561020e573d5f803e3d5ffd5b505050506040513d601f19601f8201168201806040525081019061023291906106ce565b503373ffffffffffffffffffffffffffffffffffffffff166108fc8290811502906040515f60405180830381858888f19350505050158015610276573d5f803e3d5ffd5b505050565b60015f9054906101000a900473ffffffffffffffffffffffffffffffffffffffff1681565b5f73ffffffffffffffffffffffffffffffffffffffff82169050919050565b5f6102c9826102a0565b9050919050565b6102d9816102bf565b82525050565b5f6020820190506102f25f8301846102d0565b92915050565b5f82825260208201905092915050565b7f4e6f7420656e6f756768206d6f6e65792073656e7400000000000000000000005f82015250565b5f61033c6015836102f8565b915061034782610308565b602082019050919050565b5f6020820190508181035f83015261036981610330565b9050919050565b5f819050919050565b7f4e487b71000000000000000000000000000000000000000000000000000000005f52601260045260245ffd5b7f4e487b71000000000000000000000000000000000000000000000000000000005f52601160045260245ffd5b5f6103dd82610370565b91506103e883610370565b9250826103f8576103f7610379565b5b828204905092915050565b5f61040d82610370565b915061041883610370565b925082820261042681610370565b9150828204841483151761043d5761043c6103a6565b5b5092915050565b5f61044e82610370565b915061045983610370565b9250828203905081811115610471576104706103a6565b5b92915050565b5f80fd5b5f60ff82169050919050565b6104908161047b565b811461049a575f80fd5b50565b5f815190506104ab81610487565b92915050565b5f602082840312156104c6576104c5610477565b5b5f6104d38482850161049d565b91505092915050565b5f8160011c9050919050565b5f808291508390505b60018511156105315780860481111561050d5761050c6103a6565b5b600185161561051c5780820291505b808102905061052a856104dc565b94506104f1565b94509492505050565b5f826105495760019050610604565b81610556575f9050610604565b816001811461056c5760028114610576576105a5565b6001915050610604565b60ff841115610588576105876103a6565b5b8360020a91508482111561059f5761059e6103a6565b5b50610604565b5060208310610133831016604e8410600b84101617156105da5782820a9050838111156105d5576105d46103a6565b5b610604565b6105e784848460016104e8565b925090508184048111156105fe576105fd6103a6565b5b81810290505b9392505050565b5f61061582610370565b91506106208361047b565b925061064d7fffffffffffffffffffffffffffffffffffffffffffffffffffffffffffffffff848461053a565b905092915050565b61065e81610370565b82525050565b5f6060820190506106775f8301866102d0565b61068460208301856102d0565b6106916040830184610655565b949350505050565b5f8115159050919050565b6106ad81610699565b81146106b7575f80fd5b50565b5f815190506106c8816106a4565b92915050565b5f602082840312156106e3576106e2610477565b5b5f6106f0848285016106ba565b9150509291505056fea2646970667358221220dd3379fabf8517c683b6250e787fe560afa7eb93fc868d7e59047a27a54790a164736f6c63430008150033",
  "immutableReferences": {},
  "source": "//SPDX-License-Identifier: MIT\r\npragma solidity 0.8.21;\r\n\r\nabstract contract ERC20 {\r\n    function transfer(address _from,address _to,uint256 _value) public virtual returns (bool success);\r\n    function decimals() public virtual view returns(uint8);\r\n}\r\n\r\ncontract TokenSale {\r\n    uint tokenPriceInWei = 1 ether;\r\n    address public tokenOwner;\r\n\r\n    ERC20 token;\r\n\r\n    constructor(address _token) {\r\n        token = ERC20(_token);\r\n    }\r\n\r\n    function purchase() public payable {\r\n        require(msg.value >= tokenPriceInWei, \"Not enough money sent\");\r\n        uint tokensToTransfer = msg.value / tokenPriceInWei;\r\n        uint remainder = msg.value - tokensToTransfer * tokenPriceInWei;\r\n        token.transfer(tokenOwner,msg.sender, tokensToTransfer * 10 ** token.decimals());\r\n        payable(msg.sender).transfer(remainder); //send the rest back\r\n\r\n    }\r\n}",
  "sourcePath": "C:\\Users\\jordi\\Desktop\\Web3 Devs\\Bootcamp Udemy\\NFTs\\ProjectNFT\\contracts\\TokenSale.sol",
  "compiler": {
    "name": "solc",
    "version": "0.8.21+commit.d9974bed.Emscripten.clang"
  },
  "schemaVersion": "3.4.16",
  "updatedAt": "2023-11-28T06:44:50.290Z",
  "devdoc": {
    "kind": "dev",
    "methods": {},
    "version": 1
  },
  "userdoc": {
    "kind": "user",
    "methods": {},
    "version": 1
  }
}